:020000040800F2
:10000000800A002055010008A50900086B050008BA
:1000100000000000000000000000000000000000E0
:10002000000000000000000000000000050A0008B9
:100030000000000000000000A7090008070A0008EF
:100040006701000800000000670100086701000860
:1000500067010008670100086701000867010008E0
:100060000000000067010008670100086701000840
:100070006701000867010008670100080000000030
:100080006701000800000000000000006701000890
:100090000000000067010008670100086D05000806
:1000A0000000000067010008000000006701000870
:1000B00000F002F800F03EF80CA030C80838241810
:1000C0002D18A246671EAB4654465D46AC4201D190
:1000D00000F030F87E460F3E0FCCB6460126334284
:1000E00000D0FB1AA246AB4633431847CC0B0000A6
:1000F000EC0B0000103A02D378C878C1FAD8520746
:1001000001D330C830C101D504680C6070470000CD
:100110000023002400250026103A01D378C1FBD823
:10012000520700D330C100D50B6070471FB51FBD0B
:1001300010B510BD00F00BF91146FFF7F7FF00F006
:100140005BFD00F023F903B4FFF7F2FF03BC00F0FE
:1001500029F900000748804707480047FEE7FEE707
:10016000FEE7FEE7FEE7FEE704480549054A064BC1
:1001700070470000810A0008B100000880040020D8
:10018000800A0020800600208006002001E004C0D4
:10019000091F0429FBD28B0701D50280801CC907E7
:1001A00000D00270704700290BD0C30702D0027044
:1001B000401C491E022904D3830702D50280801CFB
:1001C000891EE3E70022EEE70022DFE70378C2782A
:1001D0001946437812061B0219438378C0781B0422
:1001E000194311430902090A000608437047002217
:1001F00003098B422CD3030A8B4211D300239C4664
:100200004EE003460B433CD4002243088B4231D3DB
:1002100003098B421CD3030A8B4201D394463FE06F
:10022000C3098B4201D3CB01C01A524183098B42CF
:1002300001D38B01C01A524143098B4201D34B01B8
:10024000C01A524103098B4201D30B01C01A52411B
:10025000C3088B4201D3CB00C01A524183088B42A2
:1002600001D38B00C01A524143088B4201D34B008B
:10027000C01A5241411A00D20146524110467047FD
:100280005DE0CA0F00D04942031000D34042534002
:1002900000229C4603098B422DD3030A8B4212D3C2
:1002A000FC22890112BA030A8B420CD389019211F4
:1002B0008B4208D3890192118B4204D389013AD031
:1002C000921100E08909C3098B4201D3CB01C01A06
:1002D000524183098B4201D38B01C01A5241430919
:1002E0008B4201D34B01C01A524103098B4201D307
:1002F0000B01C01A5241C3088B4201D3CB00C01A74
:10030000524183088B4201D38B00C01A5241D9D28B
:1003100043088B4201D34B00C01A5241411A00D20C
:100320000146634652415B10104601D34042002B08
:1003300000D54942704763465B1000D3404201B587
:100340000020C046C04602BD7047704770477546E2
:1003500000F024F8AE46050069465346C008C000C8
:10036000854618B020B5FFF7FFFE60BC002749089E
:10037000B6460026C0C5C0C5C0C5C0C5C0C5C0C53D
:10038000C0C5C0C5403D49008D46704710B5044604
:10039000C046C0462046FFF7D6FE10BD0048704755
:1003A0001C04002001491820ABBEFEE72600020015
:1003B0007047000010B504463421884301D1002C59
:1003C00003D1034903A000F0CFFB0A48C46010BD6D
:1003D0008A0400002E2E5C436F72655C5372635C6E
:1003E00073746D3332663078785F666C6173682E33
:1003F0006300000000200240F8B505461F20C0063B
:1004000010492818884204D9FF2107310EA000F0B6
:10041000ABFB0B273F04384600F096F804280FD1B9
:10042000114C20690226304320616561206940211A
:1004300008432061384600F087F82169B143216103
:10044000F8BD0000FFFF00002E2E5C436F72655C5C
:100450005372635C73746D3332663078785F666CA8
:100460006173682E630000000020024008490420E8
:10047000CA68D20701D001207047CA68D20601D5E8
:1004800002207047C9684907FBD503207047000068
:100490000020024002480169802211430161704737
:1004A00000200240F8B50546002000900E461F20AF
:1004B000C00613492818884204D9FF214F3111A0E2
:1004C00000F052FB0B273F04384600F03DF80428AB
:1004D00015D1144C20690121084320612E80384633
:1004E00000F032F8042806D1AD1C300C00952880AD
:1004F000384600F029F82169490849002161F8BD12
:10050000FFFF00002E2E5C436F72655C5372635CCC
:1005100073746D3332663078785F666C6173682E01
:10052000630000000020024004480169090603D569
:1005300003494160034941607047000000200240C8
:1005400023016745AB89EFCD00B50346FFF78EFF6A
:1005500002E0FFF78BFF5B1E012803D0002B00D1C8
:10056000052000BD002BF4D1FAE7FEE7F0B52748DF
:1005700082690427130708242549002B14DAC3696C
:100580002343C3618369DB03036805D502252B433D
:10059000036003230B7002E03B4303600F700368AA
:1005A00020252B4303600AE0930708D4530706D5A0
:1005B000456A184E4B88F5545B1C4B800F709206B1
:1005C0000123002A20DAC56920221543C5610E786F
:1005D0000025032E0ED0042E0BD14D800B70016828
:1005E00091430160416892021143416001682143D7
:1005F0000160F0BDC269FF2331331A43C261026852
:10060000224302600D70F0BD8B80F0BD00540040AD
:10061000000000201400002010B500F0A7FA002808
:1006200010D0094C2068094908406104884209D16A
:1006300000F0BAF9606806498860C860216881F3F3
:100640000888804710BD0000001000080000FE2F41
:100650000000002008B504494A6902434A6149691B
:100660000140009108BD00000010024008B5044997
:10067000CA690243CA61C9690140009108BD00000E
:1006800000100240F0B500244DE00123A3401A40C1
:1006900048D04B68012B01D0022B10D18E688568A1
:1006A000134653435F00DF19BD4373431D43856009
:1006B000CD680B6846689E436B431E4346600F69D6
:1006C000C668134653435D005D19AE435F433E4326
:1006D000C6604E68022E1FD1FF2A0ED817464A69FF
:1006E000066A94461A467A437A431701BF1ABE43F4
:1006F00067467A43164306620EE0160A3246724394
:100700004F6972437243BC461601B71A466ABE432C
:1007100067467A43164346624A6806685343AE43C7
:100720001E430660641C0A681346E340ADD10020F6
:10073000F0BD00000146084A0020914209D1074956
:1007400001220B69520513430B610B6993430B6143
:100750007047012070470000005400400010024024
:1007600030B502685208520002608C68CA6803689B
:100770001F252D021202AB432243134303604A6834
:100780000261026801231A43026083680122D203D6
:10079000934383608C690B6985682343ED0AED02FE
:1007A0001D4385600B69002B02D08368134383606F
:1007B0000C68036803252D05AB43234303604B6995
:1007C0004168914319434160002030BD10B57D213F
:1007D000C900FFF70CFD0449401E486100208861F4
:1007E0000520086110BD000000E000E0054801217F
:1007F000026909070A43026102698A430261002013
:10080000704700000010024018B52048016801221E
:100810001143016001688907C90FFBD00168F82204
:1008200091438023194301600021C9431849009175
:1008300041600C2441682142FCD10168154C2140E3
:100840000091016001688901C90FFBD10168012491
:10085000A404A143016000214160446B94431C4304
:100860004463426B520852004263426B04239A4332
:100870004263C1620163BF22120400928260816000
:10088000416A9A0511434162002018BD00100240E0
:100890000CF8FFF0FFFFF6FE01490860704700000A
:1008A0001000002008B506490A690092421C00D0D9
:1008B000401C0A69D20300D5401E0028F9D108BDAA
:1008C00000E000E0F0B58DB01C2106A8FFF77CFC2D
:1008D00018216846FFF778FC01204004FFF7BAFEB4
:1008E00001200025400202240326012769460495C1
:1008F000D1C10420059009206946C006FFF7C2FE59
:10090000600269460495D1C104200590092069461A
:10091000C006FFF7B7FE2005FFF7A8FE002117204D
:1009200000F000F9172000F0F1F8124CE068E11334
:100930008843E060206809018843206021687804CA
:10094000814321600C480790A82006950A900895DD
:1009500009950B9506A90C952046FFF701FF6068E5
:10096000790608436060E06804490840E0600DB023
:10097000F0BD0000005400400B02000001F8FFFF32
:1009800010B5074B9A68012422439A60002202E0C6
:10099000845C1C70521C8A42FAD31868C04310BD94
:1009A00000300240FEE7704710B5134C2046FFF7B9
:1009B000C1FE6068012149068843606020684008E4
:1009C0004000206020680821884320600B480021F7
:1009D00001610B4802689207920F02608160C1605A
:1009E000016141618169821511438161FFF70CFF4B
:1009F000FFF7FCFE10BD00000054004000E000E0E6
:100A0000000001407047704770B51A4801684908F6
:100A1000490001600168C907C90FFBD1164C206865
:100A200001210843206020688007C00FFBD02068A8
:100A3000F82188438021084320606068F0218843C2
:100A40006060606807210902884360606068800810
:100A5000800060600C2160680842FCD1074D284688
:100A6000FFF7B4FE2846FFF717FF206B10218843DD
:100A7000206370BD002002400010024000127A0086
:100A800070470000F8B5204C0826601CFFF79EFB5D
:100A900000BA050A20792D020543F0012F1860796C
:100AA000A179000240180004000C21D0FFF73CFDA2
:100AB0003420FFF77FFC2846FFF79EFC0428FAD17C
:100AC00014E0A0190090FFF781FB01020098090AC9
:100AD000C0780006014300912846FFF7E3FC042894
:100AE00001D00099F8E7361DB6B22D1DBD42E8D3FE
:100AF000002081220146D2002154401C9042FBD3A9
:100B0000FFF7C8FCF8BD000014000020002805DB3A
:100B1000C106C90E012088400149086070470000E5
:100B200000E100E08307FF22DB0E9A408907090EEF
:100B30009940002808DB830809489B001B181868A7
:100B400090430843186070470007000F0838830877
:100B500004489B001B18D86990430843D86170472C
:100B600000E400E000ED00E07047000010B5084A26
:100B700005480649D46BFFF703FF844201D10120E9
:100B800010BD002010BD000000100008FC2B00006C
:100B9000C03B0008144C012520780128FCD11349E2
:100BA000C0050860BFF34F8FBFF36F8F0020207028
:100BB0000F4800786070062802D0772805D102E03F
:100BC000FFF760FF01E0FFF727FD1720FFF79EFF0B
:100BD0000848026808210A43026002682A4302604A
:100BE00002680A430260D7E70000002080E100E0CD
:100BF00014000020005400402C4886B08269012176
:100C00000A4382618069084000900807FFF72EFDC3
:100C100003210C1F2046FFF785FFFFF7F5FE40205C
:100C2000FFF718FD2249202288686023984310436B
:100C30008860886880229043104388600C61182186
:100C40006846FFF7C1FA01204004FFF703FD0120C9
:100C50004002092600240125F60600906946049505
:100C600001943046FFF70EFDA802009069460495F6
:100C700001943046FFF706FDFF202D30FFF712FEEE
:100C800030690C4C80050827002802DB30694005DC
:100C900001D5FFF7C1FCFFF715FE2068284320604F
:100CA000206838432060FFF775FF00000010024005
:100CB0000030024000540040D80C00080000002022
:100CC00014000000F4000008EC0C000814000020E0
:100CD0006C0A000010010008000000000000000085
:100CE000000000000000000000127A00FFFFFFFF7C
:100CF000FFFFFFFFFFFFFFFFFFFFFFFFFFFFFFFF04
:100D0000FFFFFFFFFFFFFFFFFFFFFFFFFFFFFFFFF3
:100D1000FFFFFFFFFFFFFFFFFFFFFFFFFFFFFFFFE3
:100D2000FFFFFFFFFFFFFFFFFFFFFFFFFFFFFFFFD3
:100FF000FFFFFFFFFFFFFFFFFFFFFFFFFFFFFF01FF
:10100000300E0020C5100008A12600082522000887
:1010100000000000000000000000000000000000D0
:10102000000000000000000000000000A5260008ED
:101030000000000000000000A3260008E92C0008C2
:10104000D710000800000000D7100008D7100008D3
:10105000D7100008D7100008D7100008D7100008D4
:1010600000000000D7100008D7100008D7100008B3
:10107000D7100008D7100008D710000800000000A3
:10108000D71000080000000000000000D710000882
:1010900000000000C52D0008D52D000829220008F9
:1010A00000000000D710000800000000D710000862
:1010B0000348854600F07EF80048004709330008E1
:1010C000300E00200448804704480047FEE7FEE752
:1010D000FEE7FEE7FEE7FEE7C12D0008B1100008BD
:1010E00030B50B46014600202022012409E00D46C0
:1010F000D5409D4205D31D469540491B2546954048
:1011000040191546521E002DF1DC30BD70B500248B
:101110002546002801DA01244042002901DA012590
:101120004942FFF7DDFFAC4200D04042002C00D026
:10113000494270BD10B5202A04DB0846203AD04051
:10114000002110BD0B46D340D0402024A21A91406C
:101150000843194610BD03460B439B0703D009E023
:1011600008C9121F08C0042AFAD203E00B780370E2
:10117000401C491C521EF9D27047D2B201E00270E5
:10118000401C491EFBD270470022F6E710B51346FB
:101190000A4604461946FFF7F0FF204610BD03211A
:1011A000001D401E037812021A43491EF9D510464D
:1011B00070470000064C0125064E05E0E36807CCA9
:1011C0002B430C3C98471034B442F7D3FFF774FF1D
:1011D0001C3B00083C3B000870B504460068816871
:1011E000490724D5816810264907002905DA816856
:1011F000890702D481683143816000F0E1FD054632
:1012000011E000F0DDFD401B02280CD92068806849
:10121000400708D5A06B3043A063E06B0121084371
:10122000E063084670BD206880684007E9D400206C
:1012300070BDF8B50446006881688907890F0129E7
:101240002CD10168C90702D1C168090426D581687B
:101250000522114010250126012913D1816802229F
:101260001143816021680320086000F0A9FD074652
:1012700010E000F0A5FDC01B02280BD92068806893
:10128000C00707D0A06B2843A063E06B3043E06346
:101290000120F8BD20688068C007EAD10020F8BDB1
:1012A000F8B5044600200090206881688907890FFE
:1012B000012905D10168C90731D1C16809042ED4BB
:1012C0008168184A10261140012500291AD1816829
:1012D00029438160154814490068FFF701FF00E0C9
:1012E000401E00900028FBD100F06AFD074611E087
:1012F00000F066FDC01B02280CD920680068C043BE
:10130000C00707D0A06B3043A063E06B2843E063C5
:101310000120F8BD20680068C043C007E8D1002064
:10132000F8BD00001700008040420F00340100208B
:1013300072B6FEE706490020C8610648016904222A
:1013400011430161016940221143016170470000AE
:10135000100A002000200240064A0021D1610649FF
:101360000A6902231A430A6148610869402210434E
:1013700008617047100A00200020024010B5054B9C
:101380000022DA61044A13690124234313610180B6
:1013900010BD0000100A00200020024010B50B4ACA
:1013A0000020D168CB060A4904D5C8690223184336
:1013B000C8611020D3685B0705D5CB69012423439E
:1013C000CB6104210843D06010BD00000020024022
:1013D000100A002070B5054600F0F2FC0646104CDD
:1013E0000AE0681C08D0002D04D000F0E9FC801B46
:1013F000A84201D9032070BDE068C007F1D1E068C0
:10140000800601D52020E060E068C00602D4E068D4
:10141000400703D5FFF7C2FF012070BD002070BD5B
:1014200000200240F8B5054604462035287D0026F8
:10143000012808D001202875206881688907890F54
:10144000012908D101E00220F8BD0168C9073CD19B
:10145000C168090439D4A16BFF22013291430222F1
:101460001143A163C1688907890F0091C168890888
:101470008900C1602068816892071143816000F093
:101480009FFC074612E000F09BFCC01B02280DD910
:1014900020688068002809DAA06B022188431021A7
:1014A0000843A063002028750120F8BD20688068EB
:1014B0000028E8DB2068C168009A1143C160A06B76
:1014C00080088000401CA06304E0A06B202108433A
:1014D000A0630126002028753046F8BDF8B5002528
:1014E000044620340095227D012A39D0012222753C
:1014F00003689E68760767D4384F4E68BE424DD069
:101500009E6A0F78BA4016439E620123C26A1B0787
:101510009A421FD0012A1DD0022A1BD0032A19D0BB
:10152000042A17D0052A15D0062A13D0072A11D06D
:1015300002688B6856697607760FB3420AD0536902
:10154000DB08DB005361006842690B7A5B075B0FC5
:101550001A4342610A68102A04D0112A02D038E0E6
:101560000220F8BD1E488368102A07D00122920588
:10157000134383600868102803D02AE00122D205B3
:10158000F6E7194817490068FFF7AAFD0A21484302
:1015900000E0401E00900028FBD11AE0986A0E7807
:1015A000B240904398620968102901D0112910D1E6
:1015B0000B488268102904D0012189058A43826082
:1015C00007E00121C905F9E7816B202211438163FE
:1015D0000125002020752846F8BD000001100000FC
:1015E0000027014040420F003401002070B5040084
:1015F0003BD0A06B02210843A0632046FFF7ECFD1F
:1016000000260546002832D0012D2AD021684A68DC
:101610009F2082434A60216808602068C168184A98
:101620001140C16020680169890089080161206852
:101630004169C908C90041612068016A114A114025
:1016400001622068816AC90CC90481620E48816800
:101650000322920591438160204600F0D9F8E663A9
:10166000A66320342675284670BD012070BD204633
:10167000FFF7DFFD05460128F3D00120A063C5E791
:1016800000023E8300F000F000270140806B7047AD
:101690000068006C70470000F8B50026044600287A
:1016A00005D0A06B25462035002802D007E0012098
:1016B000F8BD0020E0632875204600F0BDF8A06B5F
:1016C0001022C006002870DB2068816849076CD4AE
:1016D000A16B1301994302231943A1638168890710
:1016E000890F012905D10168C9070FD1C168090413
:1016F0000CD4C16818239943A3681943C1602068BA
:101700000169636889008908194301612068C1681B
:101710003D4B1940C160207E617E8003C9030843B0
:10172000A17E4B031843A36A012B02D001231B03A4
:1017300000E000231843E36818432369022B09D013
:10174000002318432B79E57E5B0018430123012D0C
:1017500002D00AE00423F4E7002927D0A16B20255A
:101760002943A163E16B1943E163E1690D46FF3D44
:10177000C23D02D0256A294308432168CD6805434C
:10178000CD600125E16A2D07A94213D0012911D0AE
:1017900002290FD003290DD004290BD0052909D027
:1017A000062907D0072905D010E028E00121090407
:1017B0000843DAE721684D69ED08ED004D612168C5
:1017C0004D69A78D7F077F0F3D434D612168C96833
:1017D0000E4D2940814207D10020E063A06B8008B4
:1017E0008000401CA06308E0A06B022188431043E6
:1017F000A063E06B1843E06301263046F8BDA06BA0
:101800001043A063F8E700001902FEFFE7FF3F83E3
:1018100010B500680649884209D106488169421519
:101820009143816109200121C00600F081F910BDBA
:10183000002401400010024010B586B00446142177
:101840006846FFF7A1FC10492068884219D10F486B
:10185000826941150A43826182690A4005924269A0
:1018600009020A4342614069084005900120009046
:10187000032001900020029009206946C00600F074
:10188000C1F906B010BD0000002401400010024064
:10189000F8B504464069254620350E4608280BD089
:1018A0002068C068C00709D0A06B20210843A0634E
:1018B000002028750120F8BD082700E00C2700F063
:1018C0007FFA009015E0701C13D0002E05D000F0B8
:1018D00077FA0099401AB0420BD920680068384264
:1018E00007D1A06B04210843A063002028750320C2
:1018F000F8BD206800683842E5D0A06B012149029C
:101900000843A0632068C16809058A0F0C21002ADA
:101910001AD1A27E002A17D10268120714D5826854
:1019200053070122002B08DB43688B434360A06B05
:10193000130298431043A06306E0A06B20231843D2
:10194000A063E06B1043E063207E002801D1206893
:1019500001600020F8BD000070B504462168002039
:101960008968490721D425462035297D01291CD0C5
:1019700001212975617E012904D02046FFF790FCE2
:10198000002811D1A16B0A4A1140FF2201321143F4
:10199000A1630021E163297522681C21116021687F
:1019A0008A6804231A438A6070BD022070BD00005B
:1019B000FEF1FFFF70B5044600F002FA0546601C18
:1019C00002D004480078241800F0FAF9401BA04225
:1019D000FAD370BD28010020F8B5054623480F460C
:1019E000017E012601290BD0012101762868204CB7
:1019F000012807D02046FFF7EDFC002813D030E087
:101A00000220F8BD2046FFF7E5FC002829D1FFF7AA
:101A100091FC2046FFF7DEFC0646164801690422C9
:101A2000914301611DE00020C04338606C6812E002
:101A30002046FFF791FC0E48FFF7CCFC06460D4808
:101A4000026902218A430261002E01D03C6008E055
:101A5000012080022418A868810268680818A04242
:101A6000E6D80248002101763046F8BD100A002071
:101A700050C3000000200240034801698022114346
:101A8000016100207047000000200240F0B51FB443
:101A900007461A480024017E15461E46012907D034
:101AA000012101761648FFF795FC002803D020E0BD
:101AB000022005B0F0BD012F02D0022F00D0042774
:101AC000220128463146FFF735FB81B201986200BA
:101AD0001018FFF753FC0A48FFF77CFC09490A6914
:101AE000520852000A61002803D1641CE4B2BC42CF
:101AF000E6D3024900220A76DBE70000100A002044
:101B000050C3000000200240064900200A69120666
:101B100007D5054A4A60054A4A600969090600D5A1
:101B2000012070470020024023016745AB89EFCDBB
:101B3000F0B5002258E0012393401C460C4052D0DF
:101B400096082B4DB6007519AF68AC4695072E0F59
:101B50000F25B540AE463D400927FF06B84201D1EA
:101B600000270FE0234FB84201D101270AE0224F9E
:101B7000B84201D1022705E0204FB84201D1032726
:101B800000E00527B740AF4212D11D4D2E68A64395
:101B90002E606E68A6436E60EE68A643EE60AE6887
:101BA000A643AE606546AD687446A5436446A5602D
:101BB000056856000324B440A5430560D508AD0070
:101BC0002D182E6AAC465507EF0E0F25BD40AE43CB
:101BD00065462E62C568A543C56045689D4345605E
:101BE0008368A3438360521C0B46D340A3D1F0BD4E
:101BF000000001400004004800080048000C0048B4
:101C000000040140F8B5002303240125BAE02E4664
:101C10009E40B44632407CD00E79B607B60F012EF6
:101C200001D0022E17D186682746B6465E00B7401F
:101C300000967646BE43B646CF68009EB7407646CD
:101C40003743876046686746BE430F79FF06FF0F3C
:101C50009F40374347600E79F643B6070ED0C668FB
:101C60002746B4465E00B646B7406646BE43B44615
:101C70008F687646B74066463743C7600E79B60729
:101C8000B60F022E14D1DE08B60036180096366A5A
:101C90005F07B446FE0E0F27B646B7406646BE4302
:101CA000B4460F697646B74066463743009E3762B2
:101CB00006682746B4465E00B646B7406646BE4351
:101CC0000F79B446BF07BF0F7646B7406646374325
:101CD00007604E68B603B60F53D02D4FBE692E4332
:101CE000BE61BE699F08F607F60F2A4EBF00BE19F7
:101CF0000096B6680F27B4469E07360FB646B74023
:101D00006646BE430927FF06B446B84202D1002703
:101D100010E036E0204FB84201D101270AE01F4F02
:101D2000B84201D1022705E01D4FB84201D1032777
:101D300000E005277646B74066463743009EB76009
:101D4000184EB6684F689643FF0200D51643154FEC
:101D5000BE60FE684F689643BF0200D51643114F20
:101D6000FE607E684F689643BF0300D516430D4F53
:101D70007E603E684F689643FF0300D51643094ACC
:101D800016605B1C0A681646DE4000D03FE7F8BDCF
:101D90000010024000000140000400480008004814
:101DA000000C0048000401400069084000D00120F8
:101DB0007047002A01D0816170478162704700003E
:101DC00001488068704700002801002002488168AF
:101DD00002788918816070472801002010B50648F4
:101DE0000168102211430160032000F007F800F0A1
:101DF00027F8002010BD00000020024070B5044606
:101E00000D4D7D202978C000FFF76AF901460B4887
:101E10000068FFF765F900F047F8002809D1042CA5
:101E200007D200222146401E00F03AF800206C60E4
:101E300070BD012070BD0000280100203401002089
:101E400008B5084881690122114381618169114007
:101E50000091C26901040A43C261C0690840009050
:101E600008BD000000100240002809DBC106C90EB1
:101E70000120884003490860BFF34F8FBFF36F8F85
:101E80007047000080E100E0002805DBC106C90EB4
:101E900001208840014908607047000000E100E02F
:101EA00010B501F009F810BD094910B5401E88426F
:101EB00001D9012010BD074C60610321081F00F00B
:101EC000FBFF0020A06107202061002010BD000062
:101ED000FFFFFF0000E000E07047704770B5044668
:101EE00002202546203568772068016A0E4A114293
:101EF00007D1016A9210114203D1016849084900D3
:101F00000160204600F036F800214034A171A97725
:101F1000E97721706170A170E17021716171697759
:101F20002977084670BD00001111000070B504004B
:101F300005D025462035687F002802D006E0012024
:101F400070BD00202877204600F034F80220687722
:101F5000211D206800F046FF01204034A071A877C1
:101F6000E87720706070A070E07020716071687711
:101F7000002070BD10B50C4A01680C48914206D192
:101F800081690122520491438161152008E0084AC9
:101F9000914207D181690122920491438161162007
:101FA000FFF762FF10BD0000004401400010024036
:101FB0000048014008B5144A0168144891420ED106
:101FC0008269012149040A43826180690022084034
:101FD000009011461520FFF763FF152010E00C4A12
:101FE00091420FD18269012189040A43826180698B
:101FF00000220840009011461620FFF751FF1620DE
:10200000FFF742FF08BD00000044014000100240FD
:1020100000480140014620314A7F012A01D00120B9
:10202000704702224A770268D36801210B43D360CC
:102030000068084A904202D0074A904204D1826860
:102040005207520F062A02D002680A43026000209B
:1020500070470000002C01400004004001680A6A3B
:10206000074B1A4207D10A6A9B101A4203D10A6829
:10207000520852000A600121203041770020704749
:10208000111100000168CA6852085200CA60016854
:102090000A6A084B1A4207D10A6A9B101A4203D1F6
:1020A0000A68520852000A6001212030417700205E
:1020B0007047000011110000704770B504460068B9
:1020C00001690025C9438907002915DBC168C94397
:1020D000890711D4E91E01610120207720688069F9
:1020E0008007204602D0FFF7E7FF04E000F096F8F3
:1020F000204600F094F8257720680169C943490714
:1021000017D4C168C943490713D40421C9430161E5
:1021100002202077206880698005800F204602D049
:10212000FFF7CAFF04E000F079F8204600F077F8E6
:10213000257720680169C943090716D4C168C943D6
:10214000090712D40821C9430161042020772068BF
:10215000C0698007204602D0FFF7AEFF04E000F020
:102160005DF8204600F05BF8257720680169C943D7
:10217000C90617D4C168C943C90613D41021C9437D
:102180000161082020772068C0698005800F204603
:1021900002D0FFF791FF04E000F040F8204600F085
:1021A0003EF8257720680169C943C90708D1C1688D
:1021B000C943C90704D1891E0161204600F030F8E7
:1021C00020680169C943090609D4C168C9430906E1
:1021D00005D48021C94301612046FFF77DFE2068B8
:1021E0000169C943490609D4C168C943490605D4F0
:1021F0004021C9430161204600F013F820680169BD
:10220000C943890609D4C168C943890605D4202178
:10221000C94301612046FFF760FE70BD70477047FB
:1022200070477047FEE70000F8B5424DA868401CB3
:10223000A860A868404900260827404C884212D967
:10224000204600F015F96068B90588436060206891
:102250004008400020602068B843206001F09CFBEB
:1022600001F006F8AE60A0690007C00FA0692FD08A
:10227000000CFE2108402978884226D16888002871
:1022800008D000F0E1FF69882D4800F017FA6E8051
:1022900000F0EEFFA16901200004014209D1E069CC
:1022A0003843E06120680421084320600120E86091
:1022B000F8BDA1690140814207D1E0693843E0617E
:1022C0002068022108432060F8BDE069384305E03A
:1022D000C006C00F04D0E06910210843E061F8BDDA
:1022E000A0698007C00F02D000F0D8FCF8BDA0693B
:1022F0004007C00F02D000F0E7FCF8BDA0698006DF
:10230000C00F15D0E06920210843E061A069C00733
:10231000C00F01D10120A06100F096FF6988084834
:1023200000F0CCF96E8000F0A3FFEE602E61F8BDE6
:10233000A069F8BD10010020B80B00000054004057
:10234000BC020020012108B549070E4A0020830085
:102350009B181B68401C08C1C0B23028F7D30A483C
:102360008169012211438161806910400090074812
:102370000168890889000160016803221143016036
:1023800008BD0000001000080010024000000140DD
:1023900008B504494A6902434A614969014000910C
:1023A00008BD00000010024008B50449CA69024394
:1023B000CA61C9690140009108BD000000100240D7
:1023C000F0B500244DE00123A3401A4048D04B68EB
:1023D000012B01D0022B10D18E6885681346534320
:1023E0005F00DF19BD4373431D438560CD680B68F3
:1023F00046689E436B431E4346600F69C66813469A
:1024000053435D005D19AE435F433E43C6604E6873
:10241000022E1FD1FF2A0ED817464A69066A944633
:102420001A467A437A431701BF1ABE4367467A4376
:10243000164306620EE0160A324672434F69724333
:102440007243BC461601B71A466ABE4367467A43D2
:10245000164346624A6806685343AE431E4306600D
:10246000641C0A681346E340ADD10020F0BD0000B3
:102470000146084A0020914209D1074901220B690F
:10248000520513430B610B6993430B6170470120A5
:1024900070470000005400400010024030B5026850
:1024A0005208520002608C68CA6803681F252D021A
:1024B0001202AB432243134303604A68026102687D
:1024C00001231A43026083680122D203934383608D
:1024D0008C690B6985682343ED0AED021D43856015
:1024E0000B69002B02D08368134383600C68036878
:1024F00003252D05AB43234303604B69416891439A
:1025000019434160002030BD014908607047000058
:10251000340100203EB50024164917480094019468
:10252000029412C0046004224460C26001218160F0
:10253000047444748474C474FF22C232846142619E
:1025400002461832147101620838FFF7A5F8002816
:1025500001D0FEF7EDFE012000030190000402907F
:10256000009469460448FEF7B9FF002801D0FEF741
:10257000DFFE3EBD00240140EC010020F0B587B035
:1025800014216846FEF700FE2848426901218905AA
:102590000A43426142690A400592426949110A436D
:1025A000426142690A400592426949000A43426118
:1025B00040691F4F08400590002203213846FFF76D
:1025C000F8FB8326B601092000223146C006FFF73A
:1025D000F0FB002202211748FFF7EBFB0320002449
:1025E0000125009002946946019503943846FFF74F
:1025F00009FB3E2000900920019469460294C00620
:10260000FFF700FB092002946946C0060096019579
:102610000394FFF7F7FA02200090029469460195AF
:1026200003940448FFF7EEFA07B0F0BD0010024033
:10263000001400480004004810B50A480849016029
:102640002F214160002181600161074A4161C26020
:102650008161FFF76BFC002801D0FEF769FE10BD19
:10266000004401402C020020FFFF000010B50A4882
:10267000084901602F214160002181600161074A02
:102680004161C2608161FFF751FC002801D0FEF773
:102690004FFE10BD0048014074020020FFFF000003
:1026A000FEE77047704700000A235A43024B800040
:1026B000C01849004252704750010020F0B502781E
:1026C00089B014071509240F2D010646702D12D06C
:1026D00006DC402D09D0502D09D0602D10D108E026
:1026E000802D0AD0A02D0BD109E0002508E001259E
:1026F00006E0022504E0032502E0042500E00525AC
:102700000020FA4F01297DD9052D7CD8012C38D81D
:102710006A00F74B05920121D2181155059A0C3326
:10272000D21811553A46A900243A8A186500505328
:10273000CA19505300901846183008180690415B8B
:102740001846059A0C301718385D0023012201F055
:10275000D1F8E649059A2431707851180855C00718
:10276000C00F09D0002805D006980122415B385DD2
:1027700000F032FD09B0F0BD06980022415B385DE3
:10278000F6E7A21E0792012A41D8D94B6A000C3302
:102790000592D21812190121203A9177A900CA197D
:1027A0006300D218403A9087D14F059AD219121976
:1027B000203A907703200090384624300818C0183B
:1027C00040380690818F3846059A1830101807193E
:1027D000203FB87F0023012201F08CF8C349059AFD
:1027E000303951180A197078203A9077002804D1AE
:1027F0000698818FB87F00F015FD0798927FC1B2CF
:10280000284601E059E115E1FFF74EFFB2E7224605
:102810000C3A012A41D86A00B54B0121D3181B1983
:10282000203B06921975B149AD0024396B1861003F
:102830005B18403B05911885AD4B0C33D3181B1921
:10284000203B187503200090A94800232430281845
:1028500040184038018DA64818301018001920384B
:10286000007D012201F046F87078B42882D89F4A92
:1028700006990C3A891809192039087570787D2154
:1028800009014843B421FEF72BFC0599EA19FF30F2
:102890005118F530403908856CE72346721C0E3B11
:1028A0000592012B38D80329B0D1914B6A00D31877
:1028B0001B190121203B99748C49AE0024397118F1
:1028C0006500491940398884894900230C31511821
:1028D0000919203988740320009085482430301865
:1028E00040194038818C824818301018001920385F
:1028F000807C012200F0FEFF0598417802780802F2
:1029000010430146FF397B4AF5399142C4D2F1198F
:102910004919403988842DE7082C0AD0092C1BD08E
:102920000A2C4ED00B2CB7D171487178801F4155BD
:1029300020E70329B0D151781278080210434A28C1
:1029400004D86A496A003C39885213E767484A212B
:102950006A003C3881520DE706299DD1644A6B001C
:1029600001219A185170624A604C0C329A185170C9
:10297000AA00243C14196080D41960805C4800913E
:10298000243014180C38181861884078002301226C
:1029900000F0B0FF554AA9000020691830328918AC
:1029A000321852780A54401C0528F9DB4878097817
:1029B00000020843504962880A80294600F054FF0B
:1029C000D8E60829A7D14A4A6B0001219A1851700C
:1029D000474A464C0C329A185170AA00243C1419EC
:1029E0006080D419608042480091243014180C385B
:1029F0001818618840780023012200F07BFF3B49D2
:102A0000EA0000204E31521B5118321852780A54F5
:102A1000401C0728F9DB48780A7800021043CA787E
:102A20008B7811021943344A638813802A4600F0D8
:102A30009FFE9FE6FF2A33D0FD2A86D170780128B9
:102A400089D12E4C2046FFF713FD6068012149060D
:102A500088436060206840084000206020680821AA
:102A6000884320602648FEF7C1FD2648FFF70AFB91
:102A70002548FFF707FB2348FFF7F0FA2248FFF746
:102A8000EDFA2048FFF72AFA1F48FFF727FABFF3AD
:102A90004F8F1F491D48C860BFF34F8F00BFFDE730
:102AA00002298DD1707880288AD211491139087095
:102AB00000F01EFC00F070FF5CE60129B9D10C4E5D
:102AC000123E052D77D8012C05D80848690024301E
:102AD000081800197FE0A11E01291BD803486900CE
:102AE0003038081800190121801E75E0740100209B
:102AF000D2000020D1070000260100200054004031
:102B0000EC0100202C020020740200200400FA05D1
:102B100000ED00E021460C39012906D85C48690027
:102B20000818001901210C3856E021460E390129F8
:102B30000BD8A800C019610040184038818C6A4643
:102B40001171808C000A50716FE0211F012933D868
:102B5000504B6A00D3181B190121203B19774D4BAC
:102B60000C33D3181B19203B19774949AB0018398E
:102B70005D1861006D18403D2887DD196D18403DD6
:102B80002887009043482430181845184148403D94
:102B9000183010180419203C0023298F207F1A4672
:102BA00000F0A8FE298F207F00F000FBB0703948AC
:102BB0000121103810E055E0062C10D0082C2BD045
:102BC00001A9092C34D00A2C3FD00B2C00D0D1E520
:102BD0003048801F4019012100F062FBCAE52D4BEF
:102BE00001216A0099540C339954294BA900183BD0
:102BF0005852785200902748002324300818018842
:102C00002448183010180078032200F073FE0C21BD
:102C1000284600F0FDFCADE51D4869003038425AF9
:102C20006B461A71405A000A5871022101A8D3E775
:102C3000AA00AB18164A00203C329A18135C0B54B9
:102C4000401C0528FADB0521F0E7114AEB000020C3
:102C50005A325B1B9A18135C0B54401C0728FADB92
:102C60000721E3E7FE2A0AD0FF2A0CD0FC2AAED1C6
:102C70000948C17FB160074801210A38ACE705481F
:102C800001211238A8E7034801211138A4E7000008
:102C900068010020D2000020E00F00080848074922
:102CA0008288895C074A91628188491C8180818879
:102CB000C288914201D3002181807047EE0200203A
:102CC00010010020005400400448416A044A508822
:102CD000044B1B18401C5080197070470054004072
:102CE00010010020BC02002010B5FFF76FF810BDE6
:102CF00010B53048012102688A430A430260016826
:102D0000C907C90FFBD02C4C20680122104320605A
:102D100020688007C00FFBD02368F8208343802100
:102D20000B432360636B13436363626B9207D20FA1
:102D3000FBD0626B82430A43626305216068C90469
:102D40003D221204904308436060E06A00090001DC
:102D5000E0622068012109060843206020688001A4
:102D6000C00FFBD06068F021884360606068072175
:102D70000902884360606168022089088900014374
:102D800061600C21606808400828FBD10B48FFF700
:102D9000BBFB0320FFF732F8002801D072B6FEE734
:102DA000606B042188436063206B1021884320639B
:102DB00010BD00000020024000100240006CDC0248
:102DC0007047000010B50248FFF777F910BD00000A
:102DD0002C02002010B50248FFF76FF910BD00006B
:102DE0007402002070B50268174B184E984201D04B
:102DF000B04203D17024A2434C682243144C154DB9
:102E0000984208D0B04206D0134EB04203D0A04240
:102E100001D0A84204D103263602B243CE68324321
:102E20008026B2434E69324302608A68C2620A68F1
:102E30008262984203D0A04201D0A84201D1096920
:102E400001630121416170BD002C0140000400407C
:102E5000004401400048014000200040002805DBFC
:102E6000C106C90E01208840014908607047000072
:102E700000E100E08307FF22DB0E9A408907090E7C
:102E80009940002808DB830809489B001B18186834
:102E900090430843186070470007000F0838830804
:102EA00004489B001B18D86990430843D8617047B9
:102EB00000E400E000ED00E08307FF22DB0E9A4013
:102EC0008907090E9940002808DB830809489B0000
:102ED0001B18186890430843186070470007000FDC
:102EE0000838830804489B001B18D869904308439E
:102EF000D861704700E400E000ED00E002E008C89F
:102F0000121F08C1002AFAD170477047002001E063
:102F100001C1121F002AFBD170470000F0B500214B
:102F2000172501242D4A0923DB066F1A2646BE40C9
:102F3000064256889E6126D000BF00BF00BF00BF7A
:102F400000BF00BF00BF00BF00BF00BF00BF00BF89
:102F500000BF00BF00BF00BF00BF00BF00BF00BF79
:102F600000BF00BF00BF00BF00BF00BF00BF00BF69
:102F700000BF00BF00BF00BF00BF00BF00BF00BF59
:102F800056889E621FE000BF00BF00BF00BF00BFA9
:102F900000BF00BF00BF00BF00BF00BF00BF56881A
:102FA0009E6200BF00BF00BF00BF00BF00BF00BFE8
:102FB00000BF00BF00BF00BF00BF00BF00BF00BF19
:102FC00000BF00BF00BF00BF00BF00BF00BF00BF09
:102FD00000BF491CC9B21829A7D3F0BD24010020A5
:102FE000F0B5002117252E4A2E4B01246F1A2646D4
:102FF000BE40064256889E6126D000BF00BF00BF7B
:1030000000BF00BF00BF00BF00BF00BF00BF00BFC8
:1030100000BF00BF00BF00BF00BF00BF00BF00BFB8
:1030200000BF00BF00BF00BF00BF00BF00BF00BFA8
:1030300000BF00BF00BF00BF00BF00BF00BF00BF98
:1030400000BF56889E621FE000BF00BF00BF00BFE8
:1030500000BF00BF00BF00BF00BF00BF00BF00BF78
:1030600056889E6200BF00BF00BF00BF00BF00BF08
:1030700000BF00BF00BF00BF00BF00BF00BF00BF58
:1030800000BF00BF00BF00BF00BF00BF00BF00BF48
:1030900000BF00BF491CC9B21829A7D3F0BD00006A
:1030A0002401002000040048F0B5002117252E4A15
:1030B0002E4B01246F1A2646BE40064256889E615A
:1030C00026D000BF00BF00BF00BF00BF00BF00BFD1
:1030D00000BF00BF00BF00BF00BF00BF00BF00BFF8
:1030E00000BF00BF00BF00BF00BF00BF00BF00BFE8
:1030F00000BF00BF00BF00BF00BF00BF00BF00BFD8
:1031000000BF00BF00BF00BF00BF56889E621FE027
:1031100000BF00BF00BF00BF00BF00BF00BF00BFB7
:1031200000BF00BF00BF00BF56889E6200BF00BF47
:1031300000BF00BF00BF00BF00BF00BF00BF00BF97
:1031400000BF00BF00BF00BF00BF00BF00BF00BF87
:1031500000BF00BF00BF00BF00BF00BF491CC9B215
:103160001829A7D3F0BD0000240100200014004856
:103170000548064A0188914201D0002070474088E6
:103180000028FBD001207047003C000855AA000031
:103190000448054A0188914201D0002070474088C8
:1031A00070470000003C000855AA000010B5002838
:1031B00005D0012806D0022806D0CA2010BD09205B
:1031C000C00602E0024800E00248FEF7EDFD10BD37
:1031D000000400480014004810B5002805D001285C
:1031E00006D0022807D1044803E00920C00600E009
:1031F0000248FEF7DEFD10BD001400480004004840
:10320000002805D0012806D0022806D1034803E093
:103210000920C00600E002488161704700140048A0
:1032200000040048002805D0012806D0022806D155
:10323000034803E00920C00600E0024881627047AD
:10324000001400480004004808480168082291431F
:10325000016001681022914301600168802291435E
:1032600001600168202291430160704700540040D2
:103270000A480168012211430160016808221143D4
:10328000016001681022114301600168802211432E
:103290000160016820221143016070470054004022
:1032A00010B50C46322901D9322401E0002C0AD095
:1032B000002808D0014622460348FDF74CFF03488A
:1032C00000218180C48010BDEE020020100100208A
:1032D00010B50121054800F007FA002804D1034980
:1032E0006120087000F004F810BD0000C10000204B
:1032F00010B50121014800F0B3FB10BDC100002052
:10330000C00700D00120704708B5FFF71BF8FEF793
:1033100065FDFFF7EDFCFFF731F9FFF7FBF8FFF76D
:103320008BF9FFF7A3F9FFF7D3FF00F035FB4A2035
:1033300000F0DAFA002072494A224300CA52401CC7
:103340000628FADBFFF794FF6E48FEF763FE6E482F
:10335000FEF760FE6D4B596A6D48814201D3002033
:10336000586200246B48002265002E18B05C0028CB
:103370002FD16348A1008E46183009188C465000A2
:10338000095A5F6AB94206D35D4954316918009100
:10339000895C002934D06146095A5F6AB94218D263
:1033A0005749543169180091895C002911D05F6A2E
:1033B00057498F420DD8574F71462437C919095ABA
:1033C00038460C382818805CFFF72CFF0020009945
:1033D0008854521C022AC9DB641C062CC2DB4E4CEA
:1033E000606A4E49884201D3002060620023494848
:1033F00000220C305D002E18B05C002839D10CE0A2
:10340000444F71462437C919095A38460C382818D0
:10341000805CFFF7F5FE0120D9E7394899008E4618
:103420003C3009188C465000095A676AB94206D3E5
:103430003349543169180091895C002954D06146A0
:10344000095A676AB94214D22D495431691800915A
:10345000895C00290DD02F4F71462437C919095AAC
:1034600038460C382818805CFFF7DCFE00200099F5
:103470008854521C022ABFDB5B1C062BB7DB284991
:10348000002008602748006800280ED0FEF798FC4E
:10349000204C123C6168884207D923480168491CC6
:1034A0000160FEF78DFC0A3060601F48006832281A
:1034B00000D84FE71D4C2046FEF7DAFF6068012177
:1034C000490688436060206840084000206020680A
:1034D00008218843206000F05FFAFFF7C9FEFF2053
:1034E000F530FEF767FA35E70A4924317144095A85
:1034F000084818302818805CFFF782FE0120B6E7E4
:10350000380100202C0200207402002000440140F9
:10351000F6090000D200002000480140204E0000C3
:10352000180100201C010020200100200054004050
:1035300010B51C46029B401A1B1B5843511AFDF73D
:10354000E5FD001910BD0000FFB581B0002A26D0AE
:103550000F0C0E0A0C0EFF2A25D01146FF20FDF796
:10356000BFFD054629462046FDF7BAFD0446F8B2E0
:103570002946FDF7B5FD07462946F0B2FDF7B0FD37
:103580003904220211430143FF2204982932504397
:10359000064A821801988000115005B0F0BD002441
:1035A00027462046ECE7FFB2F0B2E9E7200300200F
:1035B00000B572B6FF2229325143044A80008918AF
:1035C0000858FFF7ABFC62B600BD000020030020E6
:1035D00000B572B6FF2229325143044A800089188F
:1035E0000858FFF7FDFC62B600BD00002003002074
:1035F00000B572B6FF2229325143044A800089186F
:103600000858FFF751FD62B600BD000020030020FE
:10361000F0B5A3B00E460746002458210DA8FDF7CB
:10362000B3FD002004902E49019002900390099070
:103630000A90096805468862012000030990000489
:103640000A90089708A92648FDF748FF2448FDF787
:10365000E9FE00272248FEF77FF90A212048FEF7FD
:1036600017F91F48FEF712F8800506D51C48FEF72B
:103670000FF8BA000DA9885004197F1C162FE9DB3A
:103680000D9B00211A460DAF88003858984200D390
:103690000346904200D80246491CC9B21629F3D30A
:1036A000E01A801A1421FDF71BFD0C2E02D0082E03
:1036B00006D00FE069460871000A4871022509E04A
:1036C000FF2100230091074A1946FFF731FF6946A1
:1036D00008710125294601A8FFF7E2FD23B0F0BDDE
:1036E000EC010020FF0F000030B50B460446FFF749
:1036F0003FFD002813D0FFF74BFD0246002009498B
:1037000003E045182D792554401C9A4201D21546F4
:1037100000E01D468542F4DC9A4201D2104630BDDD
:10372000184630BD003C0008002000BF00BF00BFAD
:1037300000BF00BF00BF00BF00BF00BF00BF00BF91
:1037400000BF00BF00BF00BF00BF00BF00BF00BF81
:1037500000BF00BF00BF00BF00BF401CC0B2712847
:10376000E3D3704701494000087070471001002002
:10377000F8B5144656003A4A935B83426FD9935B7F
:10378000374DE200121B8A355519364A6700BA18C0
:1037900000928B422FD906468F190DE0281DFDF7A8
:1037A000FEFC00BA010A2F4809021E38025DB0B2C1
:1037B0002346FFF7C9FE761CB742EFDC002517E071
:1037C00000984078002804D0012807D002280ED1A4
:1037D00009E0A8B22146FFF7EBFE08E0A8B22146B7
:1037E000FFF7F6FE03E0A8B22146FFF701FF6D1CCC
:1037F000AF42E5DC31E007460DE0281DFDF7CFFCC8
:1038000000BA010A174809021E38025DB8B2234601
:10381000FFF79AFE7F1C1248815BB942EDDC002560
:10382000074617E000984078002804D0012807D008
:1038300002280ED109E0A8B22146FFF7B9FE08E040
:10384000A8B22146FFF7C4FE03E0A8B22146FFF765
:10385000CFFE6D1CB85BA842E4DCFFF765FFF8BD46
:1038600038010020EA000020F8B505461C484F004A
:10387000C05B0E46A84231D91949B00030186C31EE
:103880004018801CFDF78BFC00BA010A154809029C
:10389000825D33462846FFF757FE124800241E304B
:1038A0003F186D1C16E07878002804D0012807D056
:1038B00002280ED109E0A0B23146FFF779FE08E0F8
:1038C000A0B23146FFF784FE03E0A0B23146FFF715
:1038D0008FFE641CAC42E6DBFFF726FFF8BD00005C
:1038E00038010020CC00002001490870704700001A
:1038F00024010020F0B587B00F4605461E46144649
:1039000014216846FDF740FC032C07D11D4882694D
:1039100041150A43826180690840059002960C981F
:10392000009701940390002D04D0012D06D0022DA4
:1039300007D00AE009206946C00604E0694612483B
:1039400001E069461148FEF75DF9032C18D11148D2
:103950000F490160002141600446012204230C3418
:1039600081600EC4017641768176FF23C176C23331
:10397000C36103460162203319718262FDF78CFE38
:1039800007B0F0BD001002400004004800140048D9
:1039900000240140EC010020F0B58DB01C2106A8E8
:1039A000FDF7F2FB18216846FDF7EEFB012040040D
:1039B000FEF7EEFC01200025400202240326012729
:1039C00069460495D1C10420059009206946C006C6
:1039D000FEF7F6FC600269460495D1C1042005900B
:1039E00009206946C006FEF7EBFC2005FEF7DCFC6B
:1039F00000211720FFF73EFA1720FFF72FFA144C8B
:103A0000E068E1138843E060206809018843206092
:103A100021687804814321600E480F4E0695089571
:103A20000995079030780B9540000A9006A90C95EF
:103A30002046FEF733FD6068790608436060E06861
:103A400006490840E0603078FFF78CFE0DB0F0BD0D
:103A5000005400400E090020C100002001F8FFFFC3
:103A6000F0B506460C46081D0121890285B0884242
:103A700002D9002005B0F0BDFEF746F80020012174
:103A8000244D0190039100900295694601A8FDF72D
:103A9000A3FF214A002329460120FDF7F7FF224614
:103AA0000023A91C0120FDF7F1FF002567080DE0A8
:103AB00068008219517813780A0216491A43091DC1
:103AC000411800230120FDF7E1FF6D1CAF42EFDC40
:103AD0002046FFF715FC002809D030192038C27F96
:103AE0000C480023C01C21180120FDF7CFFF002047
:103AF000084908E042181279335C9A4202D0FDF777
:103B0000BBFFB6E7401CA042F4DBFDF7B5FF012088
:103B1000B0E70000003C000855AA00003C3B00084C
:103B2000C000002078000000FC2E0008B43B000814
:103B300038010020F80C00000C2F000802000000E3
:103B40000000000000000000FFFFFFFFFFFF010179
:103B50000101010101010101010101010101010155
:103B6000010101010101000000000001000200024A
:103B70000000010040000200800004000200080074
:103B800001001000020020000020000000000000E2
:103B90000000000000000000000000000000000025
:103BA0000000000001000000040000000000000010
:103BB00000127A00FFFFFFFFFFFFFFFFFFFFFFFF85
:103BC000FFFFFFFFFFFFFFFFFFFFFFFFFFFFFFFF05
:103BD000FFFFFFFFFFFFFFFFFFFFFFFFFFFFFFFFF5
:103BE000FFFFFFFFFFFFFFFFFFFFFFFFFFFFFFFFE5
:103BF000FFFFFFFFFFFFFFFFFFFFFFFFFF8175924A
:103C0000FFFFFFFFFFFFFFFFFFFFFFFFFFFFFFFFC4
:103C1000FFFFFFFFFFFFFFFFFFFFFFFFFFFFFFFFB4
:103C2000FFFFFFFFFFFFFFFFFFFFFFFFFFFFFFFFA4
:103C3000FFFFFFFFFFFFFFFFFFFFFFFFFFFFFFFF94
:00000001FF
